{
  "contractName": "NFTree",
  "abi": [
    {
      "inputs": [
        {
          "internalType": "uint256",
          "name": "_mintingFee",
          "type": "uint256"
        }
      ],
      "stateMutability": "nonpayable",
      "type": "constructor"
    },
    {
      "anonymous": false,
      "inputs": [
        {
          "indexed": true,
          "internalType": "address",
          "name": "owner",
          "type": "address"
        },
        {
          "indexed": true,
          "internalType": "address",
          "name": "approved",
          "type": "address"
        },
        {
          "indexed": true,
          "internalType": "uint256",
          "name": "tokenId",
          "type": "uint256"
        }
      ],
      "name": "Approval",
      "type": "event"
    },
    {
      "anonymous": false,
      "inputs": [
        {
          "indexed": true,
          "internalType": "address",
          "name": "owner",
          "type": "address"
        },
        {
          "indexed": true,
          "internalType": "address",
          "name": "operator",
          "type": "address"
        },
        {
          "indexed": false,
          "internalType": "bool",
          "name": "approved",
          "type": "bool"
        }
      ],
      "name": "ApprovalForAll",
      "type": "event"
    },
    {
      "anonymous": false,
      "inputs": [
        {
          "indexed": true,
          "internalType": "address",
          "name": "previousOwner",
          "type": "address"
        },
        {
          "indexed": true,
          "internalType": "address",
          "name": "newOwner",
          "type": "address"
        }
      ],
      "name": "OwnershipTransferred",
      "type": "event"
    },
    {
      "anonymous": false,
      "inputs": [
        {
          "indexed": true,
          "internalType": "address",
          "name": "from",
          "type": "address"
        },
        {
          "indexed": true,
          "internalType": "address",
          "name": "to",
          "type": "address"
        },
        {
          "indexed": true,
          "internalType": "uint256",
          "name": "tokenId",
          "type": "uint256"
        }
      ],
      "name": "Transfer",
      "type": "event"
    },
    {
      "inputs": [
        {
          "internalType": "address",
          "name": "to",
          "type": "address"
        },
        {
          "internalType": "uint256",
          "name": "tokenId",
          "type": "uint256"
        }
      ],
      "name": "approve",
      "outputs": [],
      "stateMutability": "nonpayable",
      "type": "function"
    },
    {
      "inputs": [
        {
          "internalType": "address",
          "name": "owner",
          "type": "address"
        }
      ],
      "name": "balanceOf",
      "outputs": [
        {
          "internalType": "uint256",
          "name": "",
          "type": "uint256"
        }
      ],
      "stateMutability": "view",
      "type": "function"
    },
    {
      "inputs": [
        {
          "internalType": "uint256",
          "name": "",
          "type": "uint256"
        }
      ],
      "name": "carbonOffsetProjects",
      "outputs": [
        {
          "internalType": "string",
          "name": "",
          "type": "string"
        }
      ],
      "stateMutability": "view",
      "type": "function"
    },
    {
      "inputs": [
        {
          "internalType": "uint256",
          "name": "tokenId",
          "type": "uint256"
        }
      ],
      "name": "getApproved",
      "outputs": [
        {
          "internalType": "address",
          "name": "",
          "type": "address"
        }
      ],
      "stateMutability": "view",
      "type": "function"
    },
    {
      "inputs": [
        {
          "internalType": "address",
          "name": "owner",
          "type": "address"
        },
        {
          "internalType": "address",
          "name": "operator",
          "type": "address"
        }
      ],
      "name": "isApprovedForAll",
      "outputs": [
        {
          "internalType": "bool",
          "name": "",
          "type": "bool"
        }
      ],
      "stateMutability": "view",
      "type": "function"
    },
    {
      "inputs": [],
      "name": "mintingFee",
      "outputs": [
        {
          "internalType": "uint256",
          "name": "",
          "type": "uint256"
        }
      ],
      "stateMutability": "view",
      "type": "function"
    },
    {
      "inputs": [],
      "name": "name",
      "outputs": [
        {
          "internalType": "string",
          "name": "",
          "type": "string"
        }
      ],
      "stateMutability": "view",
      "type": "function"
    },
    {
      "inputs": [],
      "name": "owner",
      "outputs": [
        {
          "internalType": "address",
          "name": "",
          "type": "address"
        }
      ],
      "stateMutability": "view",
      "type": "function"
    },
    {
      "inputs": [
        {
          "internalType": "uint256",
          "name": "tokenId",
          "type": "uint256"
        }
      ],
      "name": "ownerOf",
      "outputs": [
        {
          "internalType": "address",
          "name": "",
          "type": "address"
        }
      ],
      "stateMutability": "view",
      "type": "function"
    },
    {
      "inputs": [],
      "name": "renounceOwnership",
      "outputs": [],
      "stateMutability": "nonpayable",
      "type": "function"
    },
    {
      "inputs": [
        {
          "internalType": "address",
          "name": "from",
          "type": "address"
        },
        {
          "internalType": "address",
          "name": "to",
          "type": "address"
        },
        {
          "internalType": "uint256",
          "name": "tokenId",
          "type": "uint256"
        }
      ],
      "name": "safeTransferFrom",
      "outputs": [],
      "stateMutability": "nonpayable",
      "type": "function"
    },
    {
      "inputs": [
        {
          "internalType": "address",
          "name": "from",
          "type": "address"
        },
        {
          "internalType": "address",
          "name": "to",
          "type": "address"
        },
        {
          "internalType": "uint256",
          "name": "tokenId",
          "type": "uint256"
        },
        {
          "internalType": "bytes",
          "name": "data",
          "type": "bytes"
        }
      ],
      "name": "safeTransferFrom",
      "outputs": [],
      "stateMutability": "nonpayable",
      "type": "function"
    },
    {
      "inputs": [
        {
          "internalType": "address",
          "name": "operator",
          "type": "address"
        },
        {
          "internalType": "bool",
          "name": "approved",
          "type": "bool"
        }
      ],
      "name": "setApprovalForAll",
      "outputs": [],
      "stateMutability": "nonpayable",
      "type": "function"
    },
    {
      "inputs": [
        {
          "internalType": "bytes4",
          "name": "interfaceId",
          "type": "bytes4"
        }
      ],
      "name": "supportsInterface",
      "outputs": [
        {
          "internalType": "bool",
          "name": "",
          "type": "bool"
        }
      ],
      "stateMutability": "view",
      "type": "function"
    },
    {
      "inputs": [],
      "name": "symbol",
      "outputs": [
        {
          "internalType": "string",
          "name": "",
          "type": "string"
        }
      ],
      "stateMutability": "view",
      "type": "function"
    },
    {
      "inputs": [
        {
          "internalType": "uint256",
          "name": "tokenId",
          "type": "uint256"
        }
      ],
      "name": "tokenURI",
      "outputs": [
        {
          "internalType": "string",
          "name": "",
          "type": "string"
        }
      ],
      "stateMutability": "view",
      "type": "function"
    },
    {
      "inputs": [
        {
          "internalType": "address",
          "name": "from",
          "type": "address"
        },
        {
          "internalType": "address",
          "name": "to",
          "type": "address"
        },
        {
          "internalType": "uint256",
          "name": "tokenId",
          "type": "uint256"
        }
      ],
      "name": "transferFrom",
      "outputs": [],
      "stateMutability": "nonpayable",
      "type": "function"
    },
    {
      "inputs": [
        {
          "internalType": "address",
          "name": "newOwner",
          "type": "address"
        }
      ],
      "name": "transferOwnership",
      "outputs": [],
      "stateMutability": "nonpayable",
      "type": "function"
    },
    {
      "inputs": [
        {
          "internalType": "address",
          "name": "to",
          "type": "address"
        },
        {
          "internalType": "string",
          "name": "tokenURI",
          "type": "string"
        },
        {
          "internalType": "string",
          "name": "carbonOffsetProject",
          "type": "string"
        }
      ],
      "name": "mintNFT",
      "outputs": [],
      "stateMutability": "payable",
      "type": "function"
    },
    {
      "inputs": [
        {
          "internalType": "uint256",
          "name": "newFee",
          "type": "uint256"
        }
      ],
      "name": "updateMintingFee",
      "outputs": [],
      "stateMutability": "nonpayable",
      "type": "function"
    }
  ],
  "bytecode": "0x60806040523480156200001157600080fd5b50604051620034823803806200348283398181016040528101906200003791906200029a565b6040518060400160405280600681526020017f4e465472656500000000000000000000000000000000000000000000000000008152506040518060400160405280600381526020017f4e465400000000000000000000000000000000000000000000000000000000008152508160009080519060200190620000bb929190620001d3565b508060019080519060200190620000d4929190620001d3565b505050620000f7620000eb6200010560201b60201c565b6200010d60201b60201c565b80600981905550506200034f565b600033905090565b6000600760009054906101000a900473ffffffffffffffffffffffffffffffffffffffff16905081600760006101000a81548173ffffffffffffffffffffffffffffffffffffffff021916908373ffffffffffffffffffffffffffffffffffffffff1602179055508173ffffffffffffffffffffffffffffffffffffffff168173ffffffffffffffffffffffffffffffffffffffff167f8be0079c531659141344cd1fd0a4f28419497f9722a3daafe3b4186f6b6457e060405160405180910390a35050565b828054620001e190620002d0565b90600052602060002090601f01602090048101928262000205576000855562000251565b82601f106200022057805160ff191683800117855562000251565b8280016001018555821562000251579182015b828111156200025057825182559160200191906001019062000233565b5b50905062000260919062000264565b5090565b5b808211156200027f57600081600090555060010162000265565b5090565b600081519050620002948162000335565b92915050565b600060208284031215620002ad57600080fd5b6000620002bd8482850162000283565b91505092915050565b6000819050919050565b60006002820490506001821680620002e957607f821691505b602082108114156200030057620002ff62000306565b5b50919050565b7f4e487b7100000000000000000000000000000000000000000000000000000000600052602260045260246000fd5b6200034081620002c6565b81146200034c57600080fd5b50565b613123806200035f6000396000f3fe60806040526004361061011f5760003560e01c8063715018a6116100a0578063b88d4fde11610064578063b88d4fde146103d8578063c0275a2514610401578063c87b56dd1461042a578063e985e9c514610467578063f2fde38b146104a45761011f565b8063715018a6146103265780638da5cb5b1461033d57806395d89b4114610368578063a22cb46514610393578063a3ee38ae146103bc5761011f565b80633e1fa31d116100e75780633e1fa31d1461021b57806342842e0e146102585780635a64ad95146102815780636352211e146102ac57806370a08231146102e95761011f565b806301ffc9a71461012457806306fdde0314610161578063081812fc1461018c578063095ea7b3146101c957806323b872dd146101f2575b600080fd5b34801561013057600080fd5b5061014b600480360381019061014691906123bc565b6104cd565b604051610158919061279f565b60405180910390f35b34801561016d57600080fd5b506101766105af565b60405161018391906127ba565b60405180910390f35b34801561019857600080fd5b506101b360048036038101906101ae919061240e565b610641565b6040516101c09190612738565b60405180910390f35b3480156101d557600080fd5b506101f060048036038101906101eb9190612380565b610687565b005b3480156101fe57600080fd5b50610219600480360381019061021491906121fb565b61079f565b005b34801561022757600080fd5b50610242600480360381019061023d919061240e565b6107ff565b60405161024f91906127ba565b60405180910390f35b34801561026457600080fd5b5061027f600480360381019061027a91906121fb565b61089f565b005b34801561028d57600080fd5b506102966108bf565b6040516102a391906129bc565b60405180910390f35b3480156102b857600080fd5b506102d360048036038101906102ce919061240e565b6108c5565b6040516102e09190612738565b60405180910390f35b3480156102f557600080fd5b50610310600480360381019061030b9190612196565b61094c565b60405161031d91906129bc565b60405180910390f35b34801561033257600080fd5b5061033b610a04565b005b34801561034957600080fd5b50610352610a18565b60405161035f9190612738565b60405180910390f35b34801561037457600080fd5b5061037d610a42565b60405161038a91906127ba565b60405180910390f35b34801561039f57600080fd5b506103ba60048036038101906103b591906122c5565b610ad4565b005b6103d660048036038101906103d19190612301565b610aea565b005b3480156103e457600080fd5b506103ff60048036038101906103fa919061224a565b610be0565b005b34801561040d57600080fd5b506104286004803603810190610423919061240e565b610c42565b005b34801561043657600080fd5b50610451600480360381019061044c919061240e565b610c54565b60405161045e91906127ba565b60405180910390f35b34801561047357600080fd5b5061048e600480360381019061048991906121bf565b610d67565b60405161049b919061279f565b60405180910390f35b3480156104b057600080fd5b506104cb60048036038101906104c69190612196565b610dfb565b005b60007f80ac58cd000000000000000000000000000000000000000000000000000000007bffffffffffffffffffffffffffffffffffffffffffffffffffffffff1916827bffffffffffffffffffffffffffffffffffffffffffffffffffffffff1916148061059857507f5b5e139f000000000000000000000000000000000000000000000000000000007bffffffffffffffffffffffffffffffffffffffffffffffffffffffff1916827bffffffffffffffffffffffffffffffffffffffffffffffffffffffff1916145b806105a857506105a782610e7f565b5b9050919050565b6060600080546105be90612bad565b80601f01602080910402602001604051908101604052809291908181526020018280546105ea90612bad565b80156106375780601f1061060c57610100808354040283529160200191610637565b820191906000526020600020905b81548152906001019060200180831161061a57829003601f168201915b5050505050905090565b600061064c82610ee9565b6004600083815260200190815260200160002060009054906101000a900473ffffffffffffffffffffffffffffffffffffffff169050919050565b6000610692826108c5565b90508073ffffffffffffffffffffffffffffffffffffffff168373ffffffffffffffffffffffffffffffffffffffff161415610703576040517f08c379a00000000000000000000000000000000000000000000000000000000081526004016106fa9061297c565b60405180910390fd5b8073ffffffffffffffffffffffffffffffffffffffff16610722610f34565b73ffffffffffffffffffffffffffffffffffffffff16148061075157506107508161074b610f34565b610d67565b5b610790576040517f08c379a00000000000000000000000000000000000000000000000000000000081526004016107879061299c565b60405180910390fd5b61079a8383610f3c565b505050565b6107b06107aa610f34565b82610ff5565b6107ef576040517f08c379a00000000000000000000000000000000000000000000000000000000081526004016107e6906127fc565b60405180910390fd5b6107fa83838361108a565b505050565b600a602052806000526040600020600091509050805461081e90612bad565b80601f016020809104026020016040519081016040528092919081815260200182805461084a90612bad565b80156108975780601f1061086c57610100808354040283529160200191610897565b820191906000526020600020905b81548152906001019060200180831161087a57829003601f168201915b505050505081565b6108ba83838360405180602001604052806000815250610be0565b505050565b60095481565b6000806108d183611384565b9050600073ffffffffffffffffffffffffffffffffffffffff168173ffffffffffffffffffffffffffffffffffffffff161415610943576040517f08c379a000000000000000000000000000000000000000000000000000000000815260040161093a9061295c565b60405180910390fd5b80915050919050565b60008073ffffffffffffffffffffffffffffffffffffffff168273ffffffffffffffffffffffffffffffffffffffff1614156109bd576040517f08c379a00000000000000000000000000000000000000000000000000000000081526004016109b4906128dc565b60405180910390fd5b600360008373ffffffffffffffffffffffffffffffffffffffff1673ffffffffffffffffffffffffffffffffffffffff168152602001908152602001600020549050919050565b610a0c6113c1565b610a16600061143f565b565b6000600760009054906101000a900473ffffffffffffffffffffffffffffffffffffffff16905090565b606060018054610a5190612bad565b80601f0160208091040260200160405190810160405280929190818152602001828054610a7d90612bad565b8015610aca5780601f10610a9f57610100808354040283529160200191610aca565b820191906000526020600020905b815481529060010190602001808311610aad57829003601f168201915b5050505050905090565b610ae6610adf610f34565b8383611505565b5050565b600954341015610b2f576040517f08c379a0000000000000000000000000000000000000000000000000000000008152600401610b26906127dc565b60405180910390fd5b600160086000828254610b429190612aa1565b9250508190555060006008549050610b5a8482611672565b610b648184611690565b81600a60008381526020019081526020016000209080519060200190610b8b929190611fba565b50610b94610a18565b73ffffffffffffffffffffffffffffffffffffffff166108fc349081150290604051600060405180830381858888f19350505050158015610bd9573d6000803e3d6000fd5b5050505050565b610bf1610beb610f34565b83610ff5565b610c30576040517f08c379a0000000000000000000000000000000000000000000000000000000008152600401610c27906127fc565b60405180910390fd5b610c3c84848484611704565b50505050565b610c4a6113c1565b8060098190555050565b6060610c5f82610ee9565b6000600660008481526020019081526020016000208054610c7f90612bad565b80601f0160208091040260200160405190810160405280929190818152602001828054610cab90612bad565b8015610cf85780601f10610ccd57610100808354040283529160200191610cf8565b820191906000526020600020905b815481529060010190602001808311610cdb57829003601f168201915b505050505090506000610d09611760565b9050600081511415610d1f578192505050610d62565b600082511115610d54578082604051602001610d3c929190612714565b60405160208183030381529060405292505050610d62565b610d5d84611777565b925050505b919050565b6000600560008473ffffffffffffffffffffffffffffffffffffffff1673ffffffffffffffffffffffffffffffffffffffff16815260200190815260200160002060008373ffffffffffffffffffffffffffffffffffffffff1673ffffffffffffffffffffffffffffffffffffffff16815260200190815260200160002060009054906101000a900460ff16905092915050565b610e036113c1565b600073ffffffffffffffffffffffffffffffffffffffff168173ffffffffffffffffffffffffffffffffffffffff161415610e73576040517f08c379a0000000000000000000000000000000000000000000000000000000008152600401610e6a9061283c565b60405180910390fd5b610e7c8161143f565b50565b60007f01ffc9a7000000000000000000000000000000000000000000000000000000007bffffffffffffffffffffffffffffffffffffffffffffffffffffffff1916827bffffffffffffffffffffffffffffffffffffffffffffffffffffffff1916149050919050565b610ef2816117df565b610f31576040517f08c379a0000000000000000000000000000000000000000000000000000000008152600401610f289061295c565b60405180910390fd5b50565b600033905090565b816004600083815260200190815260200160002060006101000a81548173ffffffffffffffffffffffffffffffffffffffff021916908373ffffffffffffffffffffffffffffffffffffffff160217905550808273ffffffffffffffffffffffffffffffffffffffff16610faf836108c5565b73ffffffffffffffffffffffffffffffffffffffff167f8c5be1e5ebec7d5bd14f71427d1e84f3dd0314c0f7b2291e5b200ac8c7c3b92560405160405180910390a45050565b600080611001836108c5565b90508073ffffffffffffffffffffffffffffffffffffffff168473ffffffffffffffffffffffffffffffffffffffff16148061104357506110428185610d67565b5b8061108157508373ffffffffffffffffffffffffffffffffffffffff1661106984610641565b73ffffffffffffffffffffffffffffffffffffffff16145b91505092915050565b8273ffffffffffffffffffffffffffffffffffffffff166110aa826108c5565b73ffffffffffffffffffffffffffffffffffffffff1614611100576040517f08c379a00000000000000000000000000000000000000000000000000000000081526004016110f79061285c565b60405180910390fd5b600073ffffffffffffffffffffffffffffffffffffffff168273ffffffffffffffffffffffffffffffffffffffff161415611170576040517f08c379a00000000000000000000000000000000000000000000000000000000081526004016111679061289c565b60405180910390fd5b61117d8383836001611820565b8273ffffffffffffffffffffffffffffffffffffffff1661119d826108c5565b73ffffffffffffffffffffffffffffffffffffffff16146111f3576040517f08c379a00000000000000000000000000000000000000000000000000000000081526004016111ea9061285c565b60405180910390fd5b6004600082815260200190815260200160002060006101000a81549073ffffffffffffffffffffffffffffffffffffffff02191690556001600360008573ffffffffffffffffffffffffffffffffffffffff1673ffffffffffffffffffffffffffffffffffffffff168152602001908152602001600020600082825403925050819055506001600360008473ffffffffffffffffffffffffffffffffffffffff1673ffffffffffffffffffffffffffffffffffffffff16815260200190815260200160002060008282540192505081905550816002600083815260200190815260200160002060006101000a81548173ffffffffffffffffffffffffffffffffffffffff021916908373ffffffffffffffffffffffffffffffffffffffff160217905550808273ffffffffffffffffffffffffffffffffffffffff168473ffffffffffffffffffffffffffffffffffffffff167fddf252ad1be2c89b69c2b068fc378daa952ba7f163c4a11628f55a4df523b3ef60405160405180910390a461137f8383836001611826565b505050565b60006002600083815260200190815260200160002060009054906101000a900473ffffffffffffffffffffffffffffffffffffffff169050919050565b6113c9610f34565b73ffffffffffffffffffffffffffffffffffffffff166113e7610a18565b73ffffffffffffffffffffffffffffffffffffffff161461143d576040517f08c379a00000000000000000000000000000000000000000000000000000000081526004016114349061293c565b60405180910390fd5b565b6000600760009054906101000a900473ffffffffffffffffffffffffffffffffffffffff16905081600760006101000a81548173ffffffffffffffffffffffffffffffffffffffff021916908373ffffffffffffffffffffffffffffffffffffffff1602179055508173ffffffffffffffffffffffffffffffffffffffff168173ffffffffffffffffffffffffffffffffffffffff167f8be0079c531659141344cd1fd0a4f28419497f9722a3daafe3b4186f6b6457e060405160405180910390a35050565b8173ffffffffffffffffffffffffffffffffffffffff168373ffffffffffffffffffffffffffffffffffffffff161415611574576040517f08c379a000000000000000000000000000000000000000000000000000000000815260040161156b906128bc565b60405180910390fd5b80600560008573ffffffffffffffffffffffffffffffffffffffff1673ffffffffffffffffffffffffffffffffffffffff16815260200190815260200160002060008473ffffffffffffffffffffffffffffffffffffffff1673ffffffffffffffffffffffffffffffffffffffff16815260200190815260200160002060006101000a81548160ff0219169083151502179055508173ffffffffffffffffffffffffffffffffffffffff168373ffffffffffffffffffffffffffffffffffffffff167f17307eab39ab6107e8899845ad3d59bd9653f200f220920489ca2b5937696c3183604051611665919061279f565b60405180910390a3505050565b61168c82826040518060200160405280600081525061182c565b5050565b611699826117df565b6116d8576040517f08c379a00000000000000000000000000000000000000000000000000000000081526004016116cf906128fc565b60405180910390fd5b806006600084815260200190815260200160002090805190602001906116ff929190611fba565b505050565b61170f84848461108a565b61171b84848484611887565b61175a576040517f08c379a00000000000000000000000000000000000000000000000000000000081526004016117519061281c565b60405180910390fd5b50505050565b606060405180602001604052806000815250905090565b606061178282610ee9565b600061178c611760565b905060008151116117ac57604051806020016040528060008152506117d7565b806117b684611a1e565b6040516020016117c7929190612714565b6040516020818303038152906040525b915050919050565b60008073ffffffffffffffffffffffffffffffffffffffff1661180183611384565b73ffffffffffffffffffffffffffffffffffffffff1614159050919050565b50505050565b50505050565b6118368383611b42565b6118436000848484611887565b611882576040517f08c379a00000000000000000000000000000000000000000000000000000000081526004016118799061281c565b60405180910390fd5b505050565b60006118a88473ffffffffffffffffffffffffffffffffffffffff16611d60565b15611a11578373ffffffffffffffffffffffffffffffffffffffff1663150b7a026118d1610f34565b8786866040518563ffffffff1660e01b81526004016118f39493929190612753565b602060405180830381600087803b15801561190d57600080fd5b505af192505050801561193e57506040513d601f19601f8201168201806040525081019061193b91906123e5565b60015b6119c1573d806000811461196e576040519150601f19603f3d011682016040523d82523d6000602084013e611973565b606091505b506000815114156119b9576040517f08c379a00000000000000000000000000000000000000000000000000000000081526004016119b09061281c565b60405180910390fd5b805181602001fd5b63150b7a0260e01b7bffffffffffffffffffffffffffffffffffffffffffffffffffffffff1916817bffffffffffffffffffffffffffffffffffffffffffffffffffffffff191614915050611a16565b600190505b949350505050565b606060006001611a2d84611d83565b01905060008167ffffffffffffffff811115611a72577f4e487b7100000000000000000000000000000000000000000000000000000000600052604160045260246000fd5b6040519080825280601f01601f191660200182016040528015611aa45781602001600182028036833780820191505090505b509050600082602001820190505b600115611b37578080600190039150507f3031323334353637383961626364656600000000000000000000000000000000600a86061a8153600a8581611b21577f4e487b7100000000000000000000000000000000000000000000000000000000600052601260045260246000fd5b0494506000851415611b3257611b37565b611ab2565b819350505050919050565b600073ffffffffffffffffffffffffffffffffffffffff168273ffffffffffffffffffffffffffffffffffffffff161415611bb2576040517f08c379a0000000000000000000000000000000000000000000000000000000008152600401611ba99061291c565b60405180910390fd5b611bbb816117df565b15611bfb576040517f08c379a0000000000000000000000000000000000000000000000000000000008152600401611bf29061287c565b60405180910390fd5b611c09600083836001611820565b611c12816117df565b15611c52576040517f08c379a0000000000000000000000000000000000000000000000000000000008152600401611c499061287c565b60405180910390fd5b6001600360008473ffffffffffffffffffffffffffffffffffffffff1673ffffffffffffffffffffffffffffffffffffffff16815260200190815260200160002060008282540192505081905550816002600083815260200190815260200160002060006101000a81548173ffffffffffffffffffffffffffffffffffffffff021916908373ffffffffffffffffffffffffffffffffffffffff160217905550808273ffffffffffffffffffffffffffffffffffffffff16600073ffffffffffffffffffffffffffffffffffffffff167fddf252ad1be2c89b69c2b068fc378daa952ba7f163c4a11628f55a4df523b3ef60405160405180910390a4611d5c600083836001611826565b5050565b6000808273ffffffffffffffffffffffffffffffffffffffff163b119050919050565b600080600090507a184f03e93ff9f4daa797ed6e38ed64bf6a1f0100000000000000008310611e07577a184f03e93ff9f4daa797ed6e38ed64bf6a1f0100000000000000008381611dfd577f4e487b7100000000000000000000000000000000000000000000000000000000600052601260045260246000fd5b0492506040810190505b6d04ee2d6d415b85acef81000000008310611e6a576d04ee2d6d415b85acef81000000008381611e60577f4e487b7100000000000000000000000000000000000000000000000000000000600052601260045260246000fd5b0492506020810190505b662386f26fc100008310611ebf57662386f26fc100008381611eb5577f4e487b7100000000000000000000000000000000000000000000000000000000600052601260045260246000fd5b0492506010810190505b6305f5e1008310611f0e576305f5e1008381611f04577f4e487b7100000000000000000000000000000000000000000000000000000000600052601260045260246000fd5b0492506008810190505b6127108310611f59576127108381611f4f577f4e487b7100000000000000000000000000000000000000000000000000000000600052601260045260246000fd5b0492506004810190505b60648310611fa25760648381611f98577f4e487b7100000000000000000000000000000000000000000000000000000000600052601260045260246000fd5b0492506002810190505b600a8310611fb1576001810190505b80915050919050565b828054611fc690612bad565b90600052602060002090601f016020900481019282611fe8576000855561202f565b82601f1061200157805160ff191683800117855561202f565b8280016001018555821561202f579182015b8281111561202e578251825591602001919060010190612013565b5b50905061203c9190612040565b5090565b5b80821115612059576000816000905550600101612041565b5090565b600061207061206b846129fc565b6129d7565b90508281526020810184848401111561208857600080fd5b612093848285612b6b565b509392505050565b60006120ae6120a984612a2d565b6129d7565b9050828152602081018484840111156120c657600080fd5b6120d1848285612b6b565b509392505050565b6000813590506120e881613091565b92915050565b6000813590506120fd816130a8565b92915050565b600081359050612112816130bf565b92915050565b600081519050612127816130bf565b92915050565b600082601f83011261213e57600080fd5b813561214e84826020860161205d565b91505092915050565b600082601f83011261216857600080fd5b813561217884826020860161209b565b91505092915050565b600081359050612190816130d6565b92915050565b6000602082840312156121a857600080fd5b60006121b6848285016120d9565b91505092915050565b600080604083850312156121d257600080fd5b60006121e0858286016120d9565b92505060206121f1858286016120d9565b9150509250929050565b60008060006060848603121561221057600080fd5b600061221e868287016120d9565b935050602061222f868287016120d9565b925050604061224086828701612181565b9150509250925092565b6000806000806080858703121561226057600080fd5b600061226e878288016120d9565b945050602061227f878288016120d9565b935050604061229087828801612181565b925050606085013567ffffffffffffffff8111156122ad57600080fd5b6122b98782880161212d565b91505092959194509250565b600080604083850312156122d857600080fd5b60006122e6858286016120d9565b92505060206122f7858286016120ee565b9150509250929050565b60008060006060848603121561231657600080fd5b6000612324868287016120d9565b935050602084013567ffffffffffffffff81111561234157600080fd5b61234d86828701612157565b925050604084013567ffffffffffffffff81111561236a57600080fd5b61237686828701612157565b9150509250925092565b6000806040838503121561239357600080fd5b60006123a1858286016120d9565b92505060206123b285828601612181565b9150509250929050565b6000602082840312156123ce57600080fd5b60006123dc84828501612103565b91505092915050565b6000602082840312156123f757600080fd5b600061240584828501612118565b91505092915050565b60006020828403121561242057600080fd5b600061242e84828501612181565b91505092915050565b61244081612af7565b82525050565b61244f81612b09565b82525050565b600061246082612a5e565b61246a8185612a74565b935061247a818560208601612b7a565b61248381612c9d565b840191505092915050565b600061249982612a69565b6124a38185612a85565b93506124b3818560208601612b7a565b6124bc81612c9d565b840191505092915050565b60006124d282612a69565b6124dc8185612a96565b93506124ec818560208601612b7a565b80840191505092915050565b6000612505602283612a85565b915061251082612cae565b604082019050919050565b6000612528602d83612a85565b915061253382612cfd565b604082019050919050565b600061254b603283612a85565b915061255682612d4c565b604082019050919050565b600061256e602683612a85565b915061257982612d9b565b604082019050919050565b6000612591602583612a85565b915061259c82612dea565b604082019050919050565b60006125b4601c83612a85565b91506125bf82612e39565b602082019050919050565b60006125d7602483612a85565b91506125e282612e62565b604082019050919050565b60006125fa601983612a85565b915061260582612eb1565b602082019050919050565b600061261d602983612a85565b915061262882612eda565b604082019050919050565b6000612640602e83612a85565b915061264b82612f29565b604082019050919050565b6000612663602083612a85565b915061266e82612f78565b602082019050919050565b6000612686602083612a85565b915061269182612fa1565b602082019050919050565b60006126a9601883612a85565b91506126b482612fca565b602082019050919050565b60006126cc602183612a85565b91506126d782612ff3565b604082019050919050565b60006126ef603d83612a85565b91506126fa82613042565b604082019050919050565b61270e81612b61565b82525050565b600061272082856124c7565b915061272c82846124c7565b91508190509392505050565b600060208201905061274d6000830184612437565b92915050565b60006080820190506127686000830187612437565b6127756020830186612437565b6127826040830185612705565b81810360608301526127948184612455565b905095945050505050565b60006020820190506127b46000830184612446565b92915050565b600060208201905081810360008301526127d4818461248e565b905092915050565b600060208201905081810360008301526127f5816124f8565b9050919050565b600060208201905081810360008301526128158161251b565b9050919050565b600060208201905081810360008301526128358161253e565b9050919050565b6000602082019050818103600083015261285581612561565b9050919050565b6000602082019050818103600083015261287581612584565b9050919050565b60006020820190508181036000830152612895816125a7565b9050919050565b600060208201905081810360008301526128b5816125ca565b9050919050565b600060208201905081810360008301526128d5816125ed565b9050919050565b600060208201905081810360008301526128f581612610565b9050919050565b6000602082019050818103600083015261291581612633565b9050919050565b6000602082019050818103600083015261293581612656565b9050919050565b6000602082019050818103600083015261295581612679565b9050919050565b600060208201905081810360008301526129758161269c565b9050919050565b60006020820190508181036000830152612995816126bf565b9050919050565b600060208201905081810360008301526129b5816126e2565b9050919050565b60006020820190506129d16000830184612705565b92915050565b60006129e16129f2565b90506129ed8282612bdf565b919050565b6000604051905090565b600067ffffffffffffffff821115612a1757612a16612c6e565b5b612a2082612c9d565b9050602081019050919050565b600067ffffffffffffffff821115612a4857612a47612c6e565b5b612a5182612c9d565b9050602081019050919050565b600081519050919050565b600081519050919050565b600082825260208201905092915050565b600082825260208201905092915050565b600081905092915050565b6000612aac82612b61565b9150612ab783612b61565b9250827fffffffffffffffffffffffffffffffffffffffffffffffffffffffffffffffff03821115612aec57612aeb612c10565b5b828201905092915050565b6000612b0282612b41565b9050919050565b60008115159050919050565b60007fffffffff0000000000000000000000000000000000000000000000000000000082169050919050565b600073ffffffffffffffffffffffffffffffffffffffff82169050919050565b6000819050919050565b82818337600083830152505050565b60005b83811015612b98578082015181840152602081019050612b7d565b83811115612ba7576000848401525b50505050565b60006002820490506001821680612bc557607f821691505b60208210811415612bd957612bd8612c3f565b5b50919050565b612be882612c9d565b810181811067ffffffffffffffff82111715612c0757612c06612c6e565b5b80604052505050565b7f4e487b7100000000000000000000000000000000000000000000000000000000600052601160045260246000fd5b7f4e487b7100000000000000000000000000000000000000000000000000000000600052602260045260246000fd5b7f4e487b7100000000000000000000000000000000000000000000000000000000600052604160045260246000fd5b6000601f19601f8301169050919050565b7f4e46547265653a204d696e74696e6720666565206973206e6f7420656e6f756760008201527f682e000000000000000000000000000000000000000000000000000000000000602082015250565b7f4552433732313a2063616c6c6572206973206e6f7420746f6b656e206f776e6560008201527f72206f7220617070726f76656400000000000000000000000000000000000000602082015250565b7f4552433732313a207472616e7366657220746f206e6f6e20455243373231526560008201527f63656976657220696d706c656d656e7465720000000000000000000000000000602082015250565b7f4f776e61626c653a206e6577206f776e657220697320746865207a65726f206160008201527f6464726573730000000000000000000000000000000000000000000000000000602082015250565b7f4552433732313a207472616e736665722066726f6d20696e636f72726563742060008201527f6f776e6572000000000000000000000000000000000000000000000000000000602082015250565b7f4552433732313a20746f6b656e20616c7265616479206d696e74656400000000600082015250565b7f4552433732313a207472616e7366657220746f20746865207a65726f2061646460008201527f7265737300000000000000000000000000000000000000000000000000000000602082015250565b7f4552433732313a20617070726f766520746f2063616c6c657200000000000000600082015250565b7f4552433732313a2061646472657373207a65726f206973206e6f74206120766160008201527f6c6964206f776e65720000000000000000000000000000000000000000000000602082015250565b7f45524337323155524953746f726167653a2055524920736574206f66206e6f6e60008201527f6578697374656e7420746f6b656e000000000000000000000000000000000000602082015250565b7f4552433732313a206d696e7420746f20746865207a65726f2061646472657373600082015250565b7f4f776e61626c653a2063616c6c6572206973206e6f7420746865206f776e6572600082015250565b7f4552433732313a20696e76616c696420746f6b656e2049440000000000000000600082015250565b7f4552433732313a20617070726f76616c20746f2063757272656e74206f776e6560008201527f7200000000000000000000000000000000000000000000000000000000000000602082015250565b7f4552433732313a20617070726f76652063616c6c6572206973206e6f7420746f60008201527f6b656e206f776e6572206f7220617070726f76656420666f7220616c6c000000602082015250565b61309a81612af7565b81146130a557600080fd5b50565b6130b181612b09565b81146130bc57600080fd5b50565b6130c881612b15565b81146130d357600080fd5b50565b6130df81612b61565b81146130ea57600080fd5b5056fea2646970667358221220920fbd7b68ecc1f96a17352e829685c2d157d414215a3913315aef042e27c85764736f6c63430008010033",
  "immutableReferences": {},
  "source": "// SPDX-License-Identifier: MIT\r\npragma solidity ^0.8.1;\r\n\r\nimport \"@openzeppelin/contracts/token/ERC721/ERC721.sol\";\r\nimport \"@openzeppelin/contracts/token/ERC721/extensions/ERC721URIStorage.sol\";\r\nimport \"@openzeppelin/contracts/access/Ownable.sol\";\r\n\r\ncontract NFTree is ERC721URIStorage, Ownable {\r\n    uint256 private _tokenIdCounter;\r\n    uint256 public mintingFee;\r\n\r\n    // Mapping of token ID to carbon offset project\r\n    mapping(uint256 => string) public carbonOffsetProjects;\r\n\r\n    constructor(uint256 _mintingFee) ERC721(\"NFTree\", \"NFT\") {\r\n        mintingFee = _mintingFee;\r\n    }\r\n\r\n    function mintNFT(address to, string memory tokenURI, string memory carbonOffsetProject) public payable {\r\n        require(msg.value >= mintingFee, \"NFTree: Minting fee is not enough.\");\r\n\r\n        _tokenIdCounter += 1;\r\n        uint256 tokenId = _tokenIdCounter;\r\n\r\n        _safeMint(to, tokenId);\r\n        _setTokenURI(tokenId, tokenURI);\r\n\r\n        carbonOffsetProjects[tokenId] = carbonOffsetProject;\r\n\r\n        // Send the minting fee to the carbon offset project\r\n        payable(owner()).transfer(msg.value);\r\n    }\r\n\r\n    function updateMintingFee(uint256 newFee) public onlyOwner {\r\n        mintingFee = newFee;\r\n    }\r\n}\r\n",
  "sourcePath": "C:\\Users\\demo\\Documents\\project_lolcal_carboncanvas\\contracts\\NFTree.sol",
  "compiler": {
    "name": "solc",
    "version": "0.8.1+commit.df193b15.Emscripten.clang"
  },
  "schemaVersion": "3.4.13",
  "updatedAt": "2023-04-27T22:08:03.945Z",
  "devdoc": {
    "kind": "dev",
    "methods": {
      "approve(address,uint256)": {
        "details": "See {IERC721-approve}."
      },
      "balanceOf(address)": {
        "details": "See {IERC721-balanceOf}."
      },
      "getApproved(uint256)": {
        "details": "See {IERC721-getApproved}."
      },
      "isApprovedForAll(address,address)": {
        "details": "See {IERC721-isApprovedForAll}."
      },
      "name()": {
        "details": "See {IERC721Metadata-name}."
      },
      "owner()": {
        "details": "Returns the address of the current owner."
      },
      "ownerOf(uint256)": {
        "details": "See {IERC721-ownerOf}."
      },
      "renounceOwnership()": {
        "details": "Leaves the contract without owner. It will not be possible to call `onlyOwner` functions anymore. Can only be called by the current owner. NOTE: Renouncing ownership will leave the contract without an owner, thereby removing any functionality that is only available to the owner."
      },
      "safeTransferFrom(address,address,uint256)": {
        "details": "See {IERC721-safeTransferFrom}."
      },
      "safeTransferFrom(address,address,uint256,bytes)": {
        "details": "See {IERC721-safeTransferFrom}."
      },
      "setApprovalForAll(address,bool)": {
        "details": "See {IERC721-setApprovalForAll}."
      },
      "supportsInterface(bytes4)": {
        "details": "See {IERC165-supportsInterface}."
      },
      "symbol()": {
        "details": "See {IERC721Metadata-symbol}."
      },
      "tokenURI(uint256)": {
        "details": "See {IERC721Metadata-tokenURI}."
      },
      "transferFrom(address,address,uint256)": {
        "details": "See {IERC721-transferFrom}."
      },
      "transferOwnership(address)": {
        "details": "Transfers ownership of the contract to a new account (`newOwner`). Can only be called by the current owner."
      }
    },
    "version": 1
  },
  "userdoc": {
    "kind": "user",
    "methods": {},
    "version": 1
  }
}